:1000000012C02CC02BC02AC029C028C027C026C0BF
:1000100025C097C023C0B9C021C020C01FC01EC0CA
:100020001DC01CC01BC011241FBECFE5D4E0DEBF25
:10003000CDBF10E0A0E6B0E0E8EDFCE002C0059026
:100040000D92A83DB107D9F720E0A8EDB0E001C0BE
:100050001D92A13EB207E1F7BBD03CC6D1CFCF92F3
:10006000DF92EF92FF92CF93DF93C82F6A017B015B
:1000700080E690E0B6D28C2F90E00196BDD28DE85C
:1000800090E0AFD2C701B601D5D4C62FD0E0CE01E3
:10009000B3D281E990E0A5D2BE01882777FD809593
:1000A000982FF6D49B01AC01C701B60159D420E0CA
:1000B00030E040E251E478D5B8D4CB019DD283E959
:1000C00090E0DF91CF91FF90EF90DF90CF9089C2C9
:1000D000CF92DF92EF92FF92CF93DF93C82F6A0106
:1000E0007B018CE990E07DD28C2F90E0019684D248
:1000F0008DE890E076D2C701B6019CD4C62FD0E03F
:10010000CE017AD281E990E06CD2BE01882777FDDA
:100110008095982FBDD49B01AC01C701B60120D4B6
:1001200020E030E040E251E43FD57FD4CB0164D2FF
:1001300083E990E0DF91CF91FF90EF90DF90CF9037
:1001400050C21F920F920FB60F9211248F939F935C
:100150008091D800843659F41092D8008091DA004A
:100160009091DB0001969093DB008093DA0081EBA5
:1001700082BF8091D8008F5F8093D8009F918F912C
:100180000F900FBE0F901F9018951F920F920FB6F1
:100190000F9211248F938CB18093E0008091E00046
:1001A0008A3081F08091E000853229F482E08093EA
:1001B000D9001092DC008091E000803419F481E0D5
:1001C0008093DC008F910F900FBE0F901F901895B9
:1001D000CF93DF93CDB7DEB729970FB6F894DEBF84
:1001E0000FBECDBF2DE12A95F1F7000083E390E02B
:1001F000ECD1A6D008EC10E083E0882E9CEDE92E2F
:10020000F12C24E6C22ED12CAA24A39432E0932E02
:1002100048EC742E8091D900813081F138F0823021
:1002200009F45FC0833009F470C0F4CF83B78560F0
:1002300083BFFBBCEABCD9BCC8BC13BC8091DA004C
:100240009091DB00CC9738F013BE1092DB00109237
:10025000DA009092D9008091DC008823D9F213BE95
:100260001092DB001092DA008FEF94E32CE08150C3
:1002700090402040E1F700C000005FC019BD08BDFC
:100280001BBC1ABC13BCB12CB092DF00CE0101968E
:10029000A6D249815A816B817C818B2DE0DE8FEF64
:1002A00095EA2EE0815090402040E1F700C0000028
:1002B0004D815E816F8178858B2D0ADF8FEF95EA06
:1002C0002EE0815090402040E1F700C00000B39440
:1002D00086E0B812D9CF83B7856083BF8092D900FA
:1002E00099CF19BC18BC1BBD0ABD13BC9FEF21E1FF
:1002F0008AE7915020408040E1F700C0000088EC80
:1003000090E06FD11092D90085CF8091DC008111EF
:1003100002C09092D90019BC18BC1BBC1ABC73BC9B
:100320008091DA009091DB008835924008F472CF1A
:1003300013BE1092DB001092DA00A092D9006ACFAF
:1003400087B38E6087BB85B58C6685BD8FB5816AA6
:100350008FBD8EB58B608EBD89B7816089BF81EB03
:1003600082BF0895BD9A44B381E090E09C01009063
:10037000DF0002C0220F331F0A94E2F7422B44BB76
:1003800025B30090DF0002C0880F991F0A94E2F79E
:10039000282B25BB85E08A95F1F70000C59A85E0FA
:1003A0008A95F1F7000025B381E090E00090DF002E
:1003B00002C0880F991F0A94E2F78095822385BBBB
:1003C00085E08A95F1F70000C59885E18A95F1F7F7
:1003D0000000C59A85E08A95F1F7000025B381E019
:1003E00090E00090DF0002C0880F991F0A94E2F7A6
:1003F000282B25BB85E08A95F1F70000C598089564
:10040000CF93DF939AE09A95F1F700C0BD9A94B329
:1004100021E030E00090DF0002C0220F331F0A9479
:10042000E2F7922B94BB20E030E090E067E070E0D0
:1004300041E050E0DB01A21BB30BEC0102C0D595FB
:10044000C795AA95E2F7E091DF00C0FF0AC0A5B307
:10045000EA0102C0CC0FDD1FEA95E2F7AC2BA5BB89
:100460000BC0A5B3EA0102C0CC0FDD1FEA95E2F78D
:10047000FE01E095EA23E5BBDAE0DA95F1F700C08A
:10048000C59AEAE0EA95F1F700C0C5982730310532
:10049000C1F4BD9AA4B3FA010090DF0002C0EE0FD0
:1004A000FF1F0A94E2F7E095EA23E4BBA5B3FA0143
:1004B0000090DF0002C0EE0FFF1F0A94E2F7AE2BA0
:1004C000A5BB2F5F3F4F2830310509F0B3CFFAE0CD
:1004D000FA95F1F700C0C59A8AE08A95F1F700C055
:1004E000C598DF91CF910895BD9A44B381E090E023
:1004F0009C010090DF0002C0220F331F0A94E2F734
:10050000422B44BB25B30090DF0002C0880F991F27
:100510000A94E2F7282B25BB89E090E02AE02A958F
:10052000F1F700C0C59A2AE02A95F1F700C0C598F6
:100530000197009799F716CF8F929F92AF92BF9233
:10054000CF92DF92EF92FF92633019F1653081F51F
:10055000BC0180E090E09AD26B017C0124E533EE8F
:1005600045E25DE321D34B015C01A7019601C70180
:10057000B6011AD322EA37EE4BE356E315D39B01BB
:10058000AC01C501B401ECD120E030E040E850E41A
:100590000DC0BC0180E090E079D22AE037ED43E263
:1005A0005CE302D320E030E040E252E4D9D104C061
:1005B00060E070E080E89FE3FF90EF90DF90CF90E5
:1005C000BF90AF909F908F90089590BD89B988E9B2
:1005D0008AB986E880BD789408955D9BFECF8CB97A
:1005E0000895CF93DF93EC018991882311F0F5DF13
:1005F000FBCFDF91CF910895CF93DF93CDB7DEB7D7
:1006000027970FB6F894DEBF0FBECDBF4AE0BE01FC
:100610006F5F7F4F2CD3CE010196E3DF27960FB695
:10062000F894DEBF0FBECDBFDF91CF910895FC01DE
:1006300027E030E041E050E0C59A8AE08A95F1F782
:1006400000C083B390E00090DF0002C095958795CD
:100650000A94E2F7608180FF08C0CA01022E01C03F
:10066000880F0A94EAF7862B08C0CA01022E01C03F
:10067000880F0A94EAF7809586238083C5988AE0DC
:100680008A95F1F700C021503109B0F60895BD9A5E
:1006900044B381E090E09C010090DF0002C0220F93
:1006A000331F0A94E2F7422B44BB25B30090DF00CE
:1006B00002C0880F991F0A94E2F78095822385BBB8
:1006C0008AE08A95F1F700C0C59A8AE08A95F1F729
:1006D00000C0C5988AE08A95F1F700C0BD9A44B37E
:1006E00081E090E09C010090DF0002C0220F331FE8
:1006F0000A94E2F72095242324BB25B30090DF0061
:1007000002C0880F991F0A94E2F7282B25BB089591
:100710001F93CF93DF9300D0CDB7DEB71A82198233
:10072000BD9A44B381E090E09C010090DF0002C0DC
:10073000220F331F0A94E2F72095242324BB45B3EC
:100740009C010090DF0002C0220F331F0A94E2F7E1
:10075000422B45BB9C010090DF0002C0220F331FDB
:100760000A94E2F783B390E082239323892B31F438
:100770001092DE001092DD0011E00AC08091DD00D1
:100780009091DE0001969093DE008093DD0010E0F2
:100790008091DD009091DE008035934C29F4109219
:1007A000DE001092DD0003C01123E1F211E0CE0162
:1007B00001963DDF6CDFCE01029639DF112339F05F
:1007C000898190E0982F88272A81822B02C080E0BF
:1007D00090E00F900F90DF91CF911F9108952F928D
:1007E0003F924F925F926F927F928F929F92AF92C1
:1007F000BF92CF92DF92EF92FF921F93CF93DF933E
:10080000CDB7DEB728970FB6F894DEBF0FBECDBFC9
:100810001C01A8DD83E0F4DD25ED2A95F1F7000049
:1008200077DFBC0180E090E031D12AE037ED43E290
:100830005CE3BAD120E030E040E252E491D06B01B9
:100840007C01F8D0683D09F44EC04EDE85E0D8DD6D
:1008500035ED3A95F1F700005BDFBC0180E090E0F8
:1008600015D14B015C0124E533EE45E25DE39CD1FB
:100870002B013C01A5019401C501B40195D122EAE7
:1008800037EE4BE356E390D19B01AC01C301B201BB
:1008900067D020E030E040E850E462D069837A839A
:1008A0008B839C8320E030E048EC51E4C701B60123
:1008B00057D02B013C012CEA35EC47EA58E3C5013F
:1008C000B40172D12AE037ED43E25CE34AD09B01E8
:1008D000AC01C301B20168D129813A814B815C81AD
:1008E00040D010E006C011E060E070E0CB016B0189
:1008F0007C016D837E838F839887F6DD4FEFE0E781
:10090000F2E04150E040F040E1F700C00000F101AA
:10091000C082D182E282F3826D817E818F8198854F
:1009200064837583868397831087C10128960FB6E9
:10093000F894DEBF0FBECDBFDF91CF911F91FF9026
:10094000EF90DF90CF90BF90AF909F908F907F906F
:100950006F905F904F903F902F90089512BE089532
:100960005058BB27AA270ED0E5C0D6D030F0DBD038
:1009700020F031F49F3F11F41EF4CBC00EF4E0954B
:10098000E7FBC1C0E92FE7D080F3BA17620773070E
:100990008407950718F071F49EF5FFC00EF4E095FA
:1009A0000B2EBA2FA02D0B01B90190010C01CA0129
:1009B000A0011124FF27591B99F0593F50F4503ED4
:1009C00068F11A16F040A22F232F342F4427585FC6
:1009D000F3CF469537952795A795F0405395C9F7DE
:1009E0007EF41F16BA0B620B730B840BBAF0915096
:1009F000A1F0FF0FBB1F661F771F881FC2F70EC035
:100A0000BA0F621F731F841F48F487957795679507
:100A1000B795F7959E3F08F0B3CF9395880F08F0F0
:100A20009927EE0F97958795089504D06894B11192
:100A3000B5C0089598D088F09F5790F0B92F9927A6
:100A4000B751A0F0D1F0660F771F881F991F1AF0D9
:100A5000BA95C9F712C0B13081F09FD0B1E00895C6
:100A60009CC0672F782F8827B85F39F0B93FCCF347
:100A7000869577956795B395D9F73EF490958095CF
:100A8000709561957F4F8F4F9F4F0895E89409C0EF
:100A900097FB3EF490958095709561957F4F8F4FB1
:100AA0009F4F9923A9F0F92F96E9BB279395F695C7
:100AB000879577956795B795F111F8CFFAF4BB0F45
:100AC00011F460FF1BC06F5F7F4F8F4F9F4F16C0A9
:100AD000882311F096E911C0772321F09EE8872F33
:100AE000762F05C0662371F096E8862F70E060E0EF
:100AF0002AF09A95660F771F881FDAF7880F969568
:100B0000879597F9089597F99F6780E870E060E00E
:100B100008959FEF80EC089500240A941616170696
:100B200018060906089500240A94121613061406DE
:100B300005060895092E0394000C11F4882352F041
:100B4000BB0F40F4BF2B11F460FF04C06F5F7F4FF9
:100B50008F4F9F4F089557FD9058440F551F59F0E0
:100B60005F3F71F04795880F97FB991F61F09F3F9A
:100B700079F087950895121613061406551FF2CFC3
:100B80004695F1DF08C0161617061806991FF1CF13
:100B900086957105610508940895E894BB2766273A
:100BA0007727CB0197F908950BD0C4CFB5DF28F094
:100BB000BADF18F0952309F0A6CFABCF1124EECF02
:100BC000CADFA0F3959FD1F3950F50E0551F629FA8
:100BD000F001729FBB27F00DB11D639FAA27F00D96
:100BE000B11DAA1F649F6627B00DA11D661F829FBD
:100BF0002227B00DA11D621F739FB00DA11D621FA2
:100C0000839FA00D611D221F749F3327A00D611DBE
:100C1000231F849F600D211D822F762F6A2F1124A0
:100C20009F5750408AF0E1F088234AF0EE0FFF1FF3
:100C3000BB1F661F771F881F91505040A9F79E3F2A
:100C4000510570F060CFAACF5F3FECF3983EDCF324
:100C5000869577956795B795F795E7959F5FC1F767
:100C6000FE2B880F911D9695879597F90895BB27C0
:100C70004A3031F4992322F4BDE2909581959F4F3B
:100C800001C0BB27FB015527AA27880F991FAA1F60
:100C9000A41710F0A41B83955051B9F7A05DAA3397
:100CA00008F0A95DA193009779F7B111B193119262
:100CB000CB0100C0DC01FC01672F71917723E1F7C4
:100CC000329704C07C916D9370836291AE17BF0719
:080CD000C8F30895F894FFCF6A
:100CD800633A7075626C69736828226D6963686B22
:100CE800727A2F66656564732F74656D70657261BD
:100CF800747572612E637A756A6E696B00222C2294
:100D0800002E00222C302C3029200A00633A7075FE
:100D1800626C69736828226D6963686B727A2F66E2
:100D2800656564732F77696C676F746E6F73632E74
:100D3800637A756A6E696B006E6F64652E7265738F
:080D48007461727428290A008D
:00000001FF
