:1000000012C02CC02BC02AC029C028C027C026C0BF
:1000100025C024C023C022C021C020C01FC01EC0D4
:100020001DC01CC01BC011241FBECFE5D4E0DEBF25
:10003000CDBF10E0A0E6B0E0E6E7F8E002C0059032
:100040000D92A038B107D9F720E0A0E8B0E001C0D8
:100050001D92A438B207E1F702D00BC4D1CFCF93E1
:10006000DF9300D0CDB7DEB72DE12A95F1F7000080
:1000700083E390E0EFD025D086EE90E09BBD8ABD73
:1000800086E990E099BD88BD98D180E690E06A83CA
:100090007983EBD07981872F90E0F2D08CE690E0E5
:1000A000E4D06A81862F90E0EBD0109281008FEF30
:1000B00099E6E8E181509040E040E1F700C000009F
:1000C000E3CF87B38E6087BB85B58C6685BD8FB562
:1000D000816A8FBD8EB58B608EBD089580E287BB2F
:1000E00084BBAD9A85E08A95F1F70000C59A85E05A
:1000F0008A95F1F70000AD9885E08A95F1F7000048
:10010000C59885E18A95F1F70000C59A85E08A9542
:10011000F1F70000AD9A85E08A95F1F70000C598E7
:1001200008956AE06A95F1F700C090E297BB94BB2E
:1001300020E030E090E047E050E0E0E2FFEDBA017F
:10014000621B730BDC0102C0B595A7956A95E2F7B7
:10015000A0FF02C0AD9A01C0AD98BAE0BA95F1F720
:1001600000C0C59A6AE06A95F1F700C0C5982730CB
:10017000310519F4E7BBF4BBAD9A2F5F3F4F283030
:100180003105E9F68AE08A95F1F700C0C59A9AE050
:100190009A95F1F700C0C598089580E287BB84BBAB
:1001A000AD9A89E090E02AE02A95F1F700C0C59A5F
:1001B0002AE02A95F1F700C0C5980197009799F7B2
:1001C0008DCF8F929F92AF92BF92CF92DF92EF929C
:1001D000FF92633019F1653081F5BC0180E090E059
:1001E00024D26B017C0124E533EE45E25DE3ABD222
:1001F0004B015C01A7019601C701B601A4D222EA16
:1002000037EE4BE356E39FD29B01AC01C501B4012D
:100210007BD120E030E040E850E40DC0BC0180E03C
:1002200090E003D22AE037ED43E25CE38CD220E099
:1002300030E040E252E468D104C060E070E080E861
:100240009FE3FF90EF90DF90CF90BF90AF909F9093
:100250008F90089590BD89B988E98AB986E880BDF4
:1002600008955D9BFECF8CB90895CF93DF93EC0189
:100270008991882311F0F5DFFBCFDF91CF910895AD
:10028000CF93DF93CDB7DEB727970FB6F894DEBFD5
:100290000FBECDBF4AE0BE016F5F7F4FB7D2CE0128
:1002A0000196E3DF27960FB6F894DEBF0FBECDBFF1
:1002B000DF91CF910895FC0127E030E081E090E0EC
:1002C000C59A4AE04A95F1F700C06081AC01022E60
:1002D00001C0440F0A94EAF79D9B02C0462B02C05E
:1002E000409546234083C5984AE04A95F1F700C0FF
:1002F0002150310928F7089580E287BB84BBAD986F
:100300008AE08A95F1F700C0C59A8AE08A95F1F7EC
:1003100000C0C5988AE08A95F1F700C080E287BBEB
:100320008FED84BBAD9A08951F93CF93DF9300D0D8
:10033000CDB7DEB71A82198280E287BB8FED84BB0E
:10034000AD9A9D9906C0109283001092820011E030
:100350000AC080918200909183000196909383005F
:100360008093820010E0809182009091830080351C
:10037000934C41F48BE790E078DF10928300109269
:10038000820003C01123E9F211E0CE01019693DF50
:10039000B3DFCE0102968FDF112339F0898190E01F
:1003A000982F88272A81822B02C080E090E00F904E
:1003B0000F90DF91CF911F9108954F925F926F92AE
:1003C0007F928F929F92AF92BF92CF92DF92EF92E5
:1003D000FF921F93CF93DF931F92CDB7DEB77EDEE0
:1003E00083E09FDE25ED2A95F1F700009DDFBC013B
:1003F00080E090E01AD12AE037ED43E25CE3A3D13C
:1004000020E030E040E252E47FD0E3D0162F683D98
:1004100009F457C0C2DE85E084DE35ED3A95F1F788
:10042000000082DFBC0180E090E0FFD06B017C0126
:10043000612F70E069517109882777FD8095982FA9
:10044000F6D04B015C012CEA35EC47EA58E3C701D2
:10045000B60179D12AE037ED43E25CE356D09B0147
:10046000AC01C501B4016FD14B015C0124E533EE51
:1004700045E25DE3C701B60166D12B013C01A7014E
:100480009601C701B6015FD122EA37EE4BE356E38E
:100490005AD19B01AC01C301B20136D020E030E05B
:1004A00040E850E431D095D070E080E090E0BFD0DB
:1004B0009B01AC01C501B40128D08BD0F62E80E0A1
:1004C00002C081E010E0898368DE9FEFE0E7F2E0A0
:1004D0009150E040F040E1F700C00000612F7F2D17
:1004E00089810F90DF91CF911F91FF90EF90DF9066
:1004F000CF90BF90AF909F908F907F906F905F90C4
:100500004F90089512BE08955058BB27AA270ED0C9
:10051000E0C0D1D030F0D6D020F031F49F3F11F4BC
:100520001EF4C6C00EF4E095E7FBBCC0E92FE2D094
:1005300080F3BA17620773078407950718F071F400
:100540009EF5FAC00EF4E0950B2EBA2FA02D0B01EC
:10055000B90190010C01CA01A0011124FF27591B08
:1005600099F0593F50F4503E68F11A16F040A22F0E
:10057000232F342F4427585FF3CF4695379527957F
:10058000A795F0405395C9F77EF41F16BA0B620B7E
:10059000730B840BBAF09150A1F0FF0FBB1F661FC5
:1005A000771F881FC2F70EC0BA0F621F731F841F08
:1005B00048F4879577956795B795F7959E3F08F02E
:1005C000B3CF9395880F08F09927EE0F97958795ED
:1005D000089598D088F09F5790F0B92F9927B75178
:1005E000A0F0D1F0660F771F881F991F1AF0BA95F7
:1005F000C9F712C0B13081F09FD0B1E008959CC01E
:10060000672F782F8827B85F39F0B93FCCF38695EC
:1006100077956795B395D9F73EF490958095709549
:1006200061957F4F8F4F9F4F0895E89409C097FBC6
:100630003EF490958095709561957F4F8F4F9F4FB9
:100640009923A9F0F92F96E9BB279395F6958795FD
:1006500077956795B795F111F8CFFAF4BB0F11F4C0
:1006600060FF1BC06F5F7F4F8F4F9F4F16C0882367
:1006700011F096E911C0772321F09EE8872F762F9D
:1006800005C0662371F096E8862F70E060E02AF0DE
:100690009A95660F771F881FDAF7880F96958795CA
:1006A00097F9089597F99F6780E870E060E00895F2
:1006B0009FEF80EC089500240A941616170618067A
:1006C0000906089500240A94121613061406050656
:1006D0000895092E0394000C11F4882352F0BB0FE7
:1006E00040F4BF2B11F460FF04C06F5F7F4F8F4F4A
:1006F0009F4F089557FD9058440F551F59F05F3F85
:1007000071F04795880F97FB991F61F09F3F79F033
:1007100087950895121613061406551FF2CF4695B5
:10072000F1DF08C0161617061806991FF1CF869537
:100730007105610508940895E894BB27662777271B
:10074000CB0197F908950BD0C4CFB5DF28F0BADFFD
:1007500018F0952309F0A6CFABCF1124EECFCADF56
:10076000A0F3959FD1F3950F50E0551F629FF001C4
:10077000729FBB27F00DB11D639FAA27F00DB11D1D
:10078000AA1F649F6627B00DA11D661F829F2227A6
:10079000B00DA11D621F739FB00DA11D621F839F2D
:1007A000A00D611D221F749F3327A00D611D231F03
:1007B000849F600D211D822F762F6A2F11249F5751
:1007C00050408AF0E1F088234AF0EE0FFF1FBB1F74
:1007D000661F771F881F91505040A9F79E3F510513
:1007E00070F060CFAACF5F3FECF3983EDCF38695C4
:1007F00077956795B795F795E7959F5FC1F7FE2BBE
:10080000880F911D9695879597F90895BB274A30D3
:1008100031F4992322F4BDE2909581959F4F01C058
:10082000BB27FB015527AA27880F991FAA1FA417CA
:1008300010F0A41B83955051B9F7A05DAA3308F0BE
:10084000A95DA193009779F7B111B1931192CB01F2
:1008500000C0DC01FC01672F71917723E1F732972B
:1008600004C07C916D9370836291AE17BF07C8F38B
:060870000895F894FFCF8B
:100876000A48756D69646974793A20000A54656D91
:1008860070657261747572653A20000A656C6F0056
:00000001FF
