:1000000012C02CC02BC02AC029C028C027C026C0BF
:1000100025C05FC023C081C021C020C01FC01EC03A
:100020001DC01CC01BC011241FBECFE5D4E0DEBF25
:10003000CDBF10E0A0E6B0E0EEEEFBE002C0059020
:100040000D92AA3DB107D9F720E0AAEDB0E001C0BA
:100050001D92A33EB207E1F783D0C7C5D1CF1F934E
:10006000CF93DF931F92CDB7DEB7182F80E690E0D5
:1000700069835ED2812F90E0019665D28DE890E091
:1000800057D26981862F90E05ED281E990E00F908F
:10009000DF91CF911F914CC21F93CF93DF931F929B
:1000A000CDB7DEB7182F8AE990E0698341D2812F5E
:1000B00090E0019648D28DE890E03AD26981862F8F
:1000C00090E041D281E990E00F90DF91CF911F91B4
:1000D0002FC21F920F920FB60F9211248F939F93EE
:1000E0008091DA00843659F41092DA008091DC00B5
:1000F0009091DD0001969093DD008093DC0081EB10
:1001000082BF8091DA008F5F8093DA009F918F9198
:100110000F900FBE0F901F9018951F920F920FB661
:100120000F9211248F938CB18093E1008091E100B4
:100130008A3081F08091E100853229F482E0809359
:10014000DB001092DE008091E100803419F481E040
:100150008093DE008F910F900FBE0F901F90189527
:10016000CF93DF931F92CDB7DEB72DE12A95F1F73C
:10017000000083E390E0D0D18AD088EC682E712C07
:1001800093E0B92E0CED10E024E6E22EF12CCC2405
:10019000C39438ECA32E42E0942E8091DB00813092
:1001A000D9F038F0823009F443C0833009F454C0E8
:1001B000F4CF1BBD0ABDF9BCE8BC13BC8091DE00C6
:1001C000882359F38FEF94E3ECE081509040E040B6
:1001D000E1F700C0000058C079BC68BC1BBC1ABC69
:1001E00013BCD12CD092E200A1D28D2D798337DFC0
:1001F000FFEF25EA8EE0F15020408040E1F700C09B
:1002000000007981672F8D2D47DF9FEFE5EAFEE043
:100210009150E040F040E1F700C00000D39426E0A8
:10022000D212E0CF83B7856083BFB092DB00B5CF39
:1002300019BC18BC7BBC6ABC13BC8FEF91E1EAE728
:1002400081509040E040E1F700C0000086EC90E073
:100250006FD11092DB00A1CF8091DE00811102C02E
:100260009092DB0019BC18BC1BBC1ABCA3BC8091CB
:10027000DC009091DD008835924008F48ECF13BEEB
:100280001092DD001092DC00C092DB0086CF87B3B5
:100290008E6087BB85B58C6685BD8FB5816A8FBD45
:1002A0008EB58B608EBD89B7816089BF81EB82BFBF
:1002B0000895BD9A44B381E090E09C010090E20073
:1002C00002C0220F331F0A94E2F7422B44BB25B32E
:1002D0000090E20002C0880F991F0A94E2F7282BD1
:1002E00025BB85E08A95F1F70000C59A85E08A95DF
:1002F000F1F7000025B381E090E00090E20002C039
:10030000880F991F0A94E2F78095822385BB85E0C8
:100310008A95F1F70000C59885E18A95F1F700000C
:10032000C59A85E08A95F1F7000025B381E090E059
:100330000090E20002C0880F991F0A94E2F7282B70
:1003400025BB85E08A95F1F70000C5980895CF9305
:10035000DF939AE09A95F1F700C0BD9A94B321E03B
:1003600030E00090E20002C0220F331F0A94E2F74F
:10037000922B94BB20E030E090E067E070E041E039
:1003800050E0DB01A21BB30BEC0102C0D595C79571
:10039000AA95E2F7E091E200C0FF0AC0A5B3EA0126
:1003A00002C0CC0FDD1FEA95E2F7AC2BA5BB0BC05A
:1003B000A5B3EA0102C0CC0FDD1FEA95E2F7FE010A
:1003C000E095EA23E5BBDAE0DA95F1F700C0C59ADB
:1003D000EAE0EA95F1F700C0C59827303105C1F48D
:1003E000BD9AA4B3FA010090E20002C0EE0FFF1F15
:1003F0000A94E2F7E095EA23E4BBA5B3FA01009082
:10040000E20002C0EE0FFF1F0A94E2F7AE2BA5BB7D
:100410002F5F3F4F2830310509F0B3CFFAE0FA954E
:10042000F1F700C0C59A8AE08A95F1F700C0C59837
:10043000DF91CF910895BD9A44B381E090E09C0193
:100440000090E20002C0220F331F0A94E2F7422B11
:1004500044BB25B30090E20002C0880F991F0A94A4
:10046000E2F7282B25BB89E090E02AE02A95F1F7F6
:1004700000C0C59A2AE02A95F1F700C0C5980197F7
:10048000009799F716CF8F929F92AF92BF92CF921B
:10049000DF92EF92FF92633019F1653081F5BC0174
:1004A00080E090E07ED26B017C0124E533EE45E2F2
:1004B0005DE305D34B015C01A7019601C701B601BD
:1004C000FED222EA37EE4BE356E3F9D29B01AC01B0
:1004D000C501B401D5D120E030E040E850E40DC0C2
:1004E000BC0180E090E05DD22AE037ED43E25CE3BE
:1004F000E6D220E030E040E252E4C2D104C060E045
:1005000070E080E89FE3FF90EF90DF90CF90BF9086
:10051000AF909F908F90089590BD89B988E98AB96E
:1005200086E880BD789408955D9BFECF8CB90895D0
:10053000CF93DF93EC018991882311F0F5DFFBCF96
:10054000DF91CF910895CF93DF93CDB7DEB7279793
:100550000FB6F894DEBF0FBECDBF4AE0BE016F5F9D
:100560007F4F10D3CE010196E3DF27960FB6F894A4
:10057000DEBF0FBECDBFDF91CF910895FC0127E014
:1005800030E041E050E0C59A8AE08A95F1F700C07A
:1005900083B390E00090E20002C0959587950A949D
:1005A000E2F7608180FF08C0CA01022E01C0880FF7
:1005B0000A94EAF7862B08C0CA01022E01C0880FF0
:1005C0000A94EAF7809586238083C5988AE08A9505
:1005D000F1F700C021503109B0F60895BD9A44B337
:1005E00081E090E09C010090E20002C0220F331FE6
:1005F0000A94E2F7422B44BB25B30090E20002C00C
:10060000880F991F0A94E2F78095822385BB8AE0C0
:100610008A95F1F700C0C59A8AE08A95F1F700C083
:10062000C5988AE08A95F1F700C0BD9A44B381E08D
:1006300090E09C010090E20002C0220F331F0A9458
:10064000E2F72095242324BB25B30090E20002C0EA
:10065000880F991F0A94E2F7282B25BB08951F9352
:10066000CF93DF9300D0CDB7DEB71A821982BD9A3F
:1006700044B381E090E09C010090E20002C0220FB0
:10068000331F0A94E2F72095242324BB45B39C0131
:100690000090E20002C0220F331F0A94E2F7422BBF
:1006A00045BB9C010090E20002C0220F331F0A9458
:1006B000E2F783B390E082239323892B31F41092E5
:1006C000E0001092DF0011E00AC08091DF009091FD
:1006D000E00001969093E0008093DF0010E08091AD
:1006E000DF009091E0008035934C29F41092E000F7
:1006F0001092DF0003C01123E1F211E0CE01019658
:100700003DDF6CDFCE01029639DF112339F089819C
:1007100090E0982F88272A81822B02C080E090E009
:100720000F900F90DF91CF911F9108954F925F929C
:100730006F927F928F929F92AF92BF92CF92DF92F1
:10074000EF92FF921F93CF93DF9300D0CDB7DEB728
:10075000B0DD83E0FCDD25ED2A95F1F700007FDFB9
:10076000BC0180E090E01DD12AE037ED43E25CE37C
:10077000A6D120E030E040E252E482D0E6D0162F4D
:10078000683D09F457C057DE85E0E1DD35ED3A9567
:10079000F1F7000064DFBC0180E090E002D16B0162
:1007A0007C01612F70E069517109882777FD809580
:1007B000982FF9D04B015C012CEA35EC47EA58E35D
:1007C000C701B6017CD12AE037ED43E25CE359D0A2
:1007D0009B01AC01C501B40172D14B015C0124E560
:1007E00033EE45E25DE3C701B60169D12B013C015F
:1007F000A7019601C701B60162D122EA37EE4BE3A9
:1008000056E35DD19B01AC01C301B20139D020E0B8
:1008100030E040E850E434D098D070E080E090E0E0
:10082000C2D09B01AC01C501B4012BD08ED0762F74
:1008300080E003C081E070E010E079838A83FBDD13
:100840009FEFE0E7F2E09150E040F040E1F700C0B8
:100850000000612F79818A810F900F90DF91CF91F5
:100860001F91FF90EF90DF90CF90BF90AF909F903F
:100870008F907F906F905F904F90089512BE089573
:100880005058BB27AA270ED0E0C0D1D030F0D6D028
:1008900020F031F49F3F11F41EF4C6C00EF4E09531
:1008A000E7FBBCC0E92FE2D080F3BA1762077307F9
:1008B0008407950718F071F49EF5FAC00EF4E095E0
:1008C0000B2EBA2FA02D0B01B90190010C01CA010A
:1008D000A0011124FF27591B99F0593F50F4503EB5
:1008E00068F11A16F040A22F232F342F4427585FA7
:1008F000F3CF469537952795A795F0405395C9F7BF
:100900007EF41F16BA0B620B730B840BBAF0915076
:10091000A1F0FF0FBB1F661F771F881FC2F70EC015
:10092000BA0F621F731F841F48F4879577956795E8
:10093000B795F7959E3F08F0B3CF9395880F08F0D1
:100940009927EE0F97958795089598D088F09F572F
:1009500090F0B92F9927B751A0F0D1F0660F771F0B
:10096000881F991F1AF0BA95C9F712C0B13081F0EB
:100970009FD0B1E008959CC0672F782F8827B85F7B
:1009800039F0B93FCCF3869577956795B395D9F74C
:100990003EF490958095709561957F4F8F4F9F4F56
:1009A0000895E89409C097FB3EF490958095709562
:1009B00061957F4F8F4F9F4F9923A9F0F92F96E9AB
:1009C000BB279395F695879577956795B795F11120
:1009D000F8CFFAF4BB0F11F460FF1BC06F5F7F4FBD
:1009E0008F4F9F4F16C0882311F096E911C07723CF
:1009F00021F09EE8872F762F05C0662371F096E8D8
:100A0000862F70E060E02AF09A95660F771F881FA6
:100A1000DAF7880F9695879597F9089597F99F6764
:100A200080E870E060E008959FEF80EC0895002476
:100A30000A941616170618060906089500240A9443
:100A400012161306140605060895092E0394000CC9
:100A500011F4882352F0BB0F40F4BF2B11F460FF58
:100A600004C06F5F7F4F8F4F9F4F089557FD905881
:100A7000440F551F59F05F3F71F04795880F97FB62
:100A8000991F61F09F3F79F087950895121613061C
:100A90001406551FF2CF4695F1DF08C0161617064B
:100AA0001806991FF1CF8695710561050894089580
:100AB000E894BB2766277727CB0197F908950BD0D9
:100AC000C4CFB5DF28F0BADF18F0952309F0A6CF20
:100AD000ABCF1124EECFCADFA0F3959FD1F3950FD2
:100AE00050E0551F629FF001729FBB27F00DB11DB2
:100AF000639FAA27F00DB11DAA1F649F6627B00D42
:100B0000A11D661F829F2227B00DA11D621F739F2A
:100B1000B00DA11D621F839FA00D611D221F749F38
:100B20003327A00D611D231F849F600D211D822F7F
:100B3000762F6A2F11249F5750408AF0E1F08823C6
:100B40004AF0EE0FFF1FBB1F661F771F881F9150D3
:100B50005040A9F79E3F510570F060CFAACF5F3F8C
:100B6000ECF3983EDCF3869577956795B795F79506
:100B7000E7959F5FC1F7FE2B880F911D969587958E
:100B800097F90895BB274A3031F4992322F4BDE246
:100B9000909581959F4F01C0BB27FB015527AA2740
:100BA000880F991FAA1FA41710F0A41B83955051FA
:100BB000B9F7A05DAA3308F0A95DA193009779F772
:100BC000B111B1931192CB0100C0DC01FC01672F80
:100BD00071917723E1F7329704C07C916D93708314
:0E0BE0006291AE17BF07C8F30895F894FFCFD7
:100BEE00633A7075626C69736828226D6963686B0D
:100BFE00727A2F66656564732F74656D70657261A8
:100C0E00747572612E637A756A6E696B00222C227E
:100C1E0000222C302C3029200A00633A7075626C49
:100C2E0069736828226D6963686B727A2F666565D1
:100C3E0064732F77696C676F746E6F73632E637A4C
:100C4E00756A6E696B00646F66696C652822696EE1
:0A0C5E0069742E6C756122290A00EA
:00000001FF
