:1000000012C021C020C01FC01EC01DC01CC01BC00C
:100010001AC019C099C017C016C015C014C013C0AB
:1000200012C011C010C011241FBECFE5D4E0DEBF46
:10003000CDBF20E0A0E6B0E001C01D92A539B20717
:10004000E1F78DD1E1C3DCCF26E0880F991F2A9517
:10005000E1F7807C93708363986034E0880F991F88
:100060003A95E1F7C2989FB9779BFECF80E38FB9AD
:10007000779BFECF8FB1C29A90E008950F931F93A4
:10008000CF93DF938C01FC0120E130E011921192BB
:100090002150310921153105C9F7C0E0D0E0CE016A
:1000A000D3DFFC01EF2FFF27E295EF70EE0FFF1F6C
:1000B000E00FF11F9F70918380832196C031D1059D
:1000C00071F7DF91CF911F910F9108958CE287BB5B
:1000D00081ED8DB908958FB9779BFECF8FB10895CB
:1000E000CF93DF93C3E0D0E0C2988FEBF4DF80E1E1
:1000F000F2DFC29A21972097B9F7DF91CF91089547
:10010000C29880EBE8DFC29A0895779BFECF8FB14B
:100110000895C298FADFC29A90E008958FB9779B4C
:10012000FECF8FB1089585E886B987B1806E87B913
:10013000089590EE97B997B1982B97B9369A36995A
:10014000FECF85B1869508951F920F920FB60F923C
:1001500011242F933F934F935F936F937F938F93CC
:100160009F93AF93BF93EF93FF93809160008111B2
:100170000AC08FB190E090937B0080937A0081E079
:1001800080936000DBC080917A0090917B00982F73
:10019000882790937B0080937A0080917A009091D9
:1001A0007B002FB1822B90937B0080937A0080910B
:1001B0007A0090917B0034E0969587953A95E1F727
:1001C00090937B0080937A0080917A0090917B00DD
:1001D00080938C0080918C00869580938C00809118
:1001E0008C008A3718F089E780938C00E0916100D9
:1001F000F0E0E458FF4F808181110AC0E091610076
:10020000F0E0E659FF4F908180918C009817B0F094
:10021000E0916100F0E0E458FF4F8081813051F5BA
:10022000E0916100F0E0E659FF4F208180918C0061
:1002300030E090E0019728173907E4F482B394E0A6
:10024000892782BBE0916100F0E080918C00E65943
:10025000FF4F8083E0916100F0E0E458FF4F808120
:10026000813009F04AC0E0916100F0E0E458FF4FAE
:10027000108243C0E0916100F0E0E458FF4F8081BC
:10028000813051F4E0916100F0E0E659FF4F908138
:1002900080918C008917B0F0E0916100F0E0E458A3
:1002A000FF4F8081811148C0E0916100F0E0E65984
:1002B000FF4F208180918C0030E090E00196821702
:1002C0009307D4F582B394E0892782BBE091610063
:1002D000F0E080918C00E659FF4F8083E09161004F
:1002E000F0E0E458FF4F8081811107C0E091610088
:1002F000F0E0E458FF4F81E0808380EBA6D080914E
:100300006100805EA2D0E0916100F0E0E659FF4F0D
:10031000608170E080E090E055D122E430E645E86D
:100320005FE3DCD19B01AC0160E070E08EEF92E412
:10033000B6D01AD1862F89D010926000FF91EF912C
:10034000BF91AF919F918F917F916F915F914F91ED
:100350003F912F910F900FBE0F901F901895B89A54
:100360008A9AE1DEB3DE78948FE39CE90197F1F796
:1003700000C00000B5DE8FE190E060D0C09A54E08C
:10038000E52E6FE7D62ECC24C394109261008091A5
:100390006100803180F48091610090E055DEEFE9EA
:1003A000FFE03197F1F700C00000809161008F5F9E
:1003B00080936100ECCF02E610E0CDE8D0E040E5AC
:1003C000F42EC80182569040B4DEF801908191115C
:1003D00004C048814817E8F012C0913039F598817F
:1003E000492F50E0282F30E02150310942175307A0
:1003F0001CF4F80110820DC0891758F017C050E0A6
:10040000282F30E02F5F3F4F241735077CF4F80189
:10041000C08292B39E2592BB888380EB16D08F2D2D
:1004200014D08881FD2DF81B8F2F0FD00F5F1F4F29
:100430002196F39488E5F812C4CFA7CF90BD89B96F
:1004400088E18AB986E880BD08955D9BFECF8CB9AE
:100450000895CF93DF93EC018991882311F0F5DFA4
:10046000FBCFDF91CF910895CF93DF93CDB7DEB768
:1004700027970FB6F894DEBF0FBECDBF4AE0BE018E
:100480006F5F7F4F8ED1CE010196E3DF27960FB6C7
:10049000F894DEBF0FBECDBFDF91CF9108955058C5
:1004A000BB27AA270ED0E0C0D1D030F0D6D020F0A4
:1004B00031F49F3F11F41EF4C6C00EF4E095E7FB43
:1004C000BCC0E92FE2D080F3BA1762077307840734
:1004D000950718F071F49EF5FAC00EF4E0950B2E16
:1004E000BA2FA02D0B01B90190010C01CA01A00186
:1004F0001124FF27591B99F0593F50F4503E68F1E1
:100500001A16F040A22F232F342F4427585FF3CF21
:10051000469537952795A795F0405395C9F77EF4F2
:100520001F16BA0B620B730B840BBAF09150A1F03B
:10053000FF0FBB1F661F771F881FC2F70EC0BA0FC1
:10054000621F731F841F48F4879577956795B79549
:10055000F7959E3F08F0B3CF9395880F08F0992741
:10056000EE0F97958795089598D088F09F5790F053
:10057000B92F9927B751A0F0D1F0660F771F881FC8
:10058000991F1AF0BA95C9F712C0B13081F09FD007
:10059000B1E008959CC0672F782F8827B85F39F0A5
:1005A000B93FCCF3869577956795B395D9F73EF427
:1005B00090958095709561957F4F8F4F9F4F0895CF
:1005C000E89409C097FB3EF49095809570956195ED
:1005D0007F4F8F4F9F4F9923A9F0F92F96E9BB27A3
:1005E0009395F695879577956795B795F111F8CF1F
:1005F000FAF4BB0F11F460FF1BC06F5F7F4F8F4F8A
:100600009F4F16C0882311F096E911C0772321F07F
:100610009EE8872F762F05C0662371F096E8862F17
:1006200070E060E02AF09A95660F771F881FDAF76E
:10063000880F9695879597F9089597F99F6780E8B1
:1006400070E060E008959FEF80EC089500240A9424
:100650001616170618060906089500240A9412169D
:100660001306140605060895092E0394000C11F4D0
:10067000882352F0BB0F40F4BF2B11F460FF04C07D
:100680006F5F7F4F8F4F9F4F089557FD9058440FD6
:10069000551F59F05F3F71F04795880F97FB991FE1
:1006A00061F09F3F79F0879508951216130614069E
:1006B000551FF2CF4695F1DF08C01616170618062B
:1006C000991FF1CF86957105610508940895E89406
:1006D000BB2766277727CB0197F908950BD0C4CFA6
:1006E000B5DF28F0BADF18F0952309F0A6CFABCF1D
:1006F0001124EECFCADFA0F3959FD1F3950F50E000
:10070000551F629FF001729FBB27F00DB11D639FC3
:10071000AA27F00DB11DAA1F649F6627B00DA11D69
:10072000661F829F2227B00DA11D621F739FB00D0F
:10073000A11D621F839FA00D611D221F749F33277F
:10074000A00D611D231F849F600D211D822F762F18
:100750006A2F11249F5750408AF0E1F088234AF015
:10076000EE0FFF1FBB1F661F771F881F9150504061
:10077000A9F79E3F510570F060CFAACF5F3FECF321
:10078000983EDCF3869577956795B795F795E7954D
:100790009F5FC1F7FE2B880F911D9695879597F95E
:1007A0000895BB274A3031F4992322F4BDE2909595
:1007B00081959F4F01C0BB27FB015527AA27880FB2
:1007C000991FAA1FA41710F0A41B83955051B9F7C5
:1007D000A05DAA3308F0A95DA193009779F7B11144
:1007E000B1931192CB0100C0DC01FC01672F719124
:1007F0007723E1F7329704C07C916D937083629107
:0C080000AE17BF07C8F30895F894FFCFAF
:00000001FF
